:100000000C9435010C945D010C945D010C945D0120
:100010000C945D010C945D010C945D010C945D01E8
:100020000C945D010C945D010C945D010C945D01D8
:100030000C945D010C945D010C945D010C945D01C8
:100040000C9430040C945D010C94FE030C94D803C2
:100050000C945D010C945D010C945D010C945D01A8
:100060000C945D010C945D0152096AD53036A538B7
:10007000BF40A39E81F3D7FB7CE339829B2FFF8790
:10008000348E4344C4DEE9CB547B9432A6C2233D74
:10009000EE4C950B42FAC34E082EA16628D924B225
:1000A000765BA2496D8BD12572F8F6648668981646
:1000B000D4A45CCC5D65B6926C704850FDEDB9DAA5
:1000C0005E154657A78D9D8490D8AB008CBCD30A93
:1000D000F7E45805B8B34506D02C1E8FCA3F0F026F
:1000E000C1AFBD0301138A6B3A9111414F67DCEA3E
:1000F00097F2CFCEF0B4E67396AC7422E7AD3585B7
:10010000E2F937E81C75DF6E47F11A711D29C589C0
:100110006FB7620EAA18BE1BFC563E4BC6D27920A2
:100120009ADBC0FE78CD5AF41FDDA8338807C731AB
:10013000B11210592780EC5F60517FA919B54A0DA3
:100140002DE57A9F93C99CEFA0E03B4DAE2AF5B018
:10015000C8EBBB3C83539961172B047EBA77D62634
:10016000E169146355210C7D637C777BF26B6FC56D
:100170003001672BFED7AB76CA82C97DFA5947F0AA
:10018000ADD4A2AF9CA472C0B7FD9326363FF7CC86
:1001900034A5E5F171D8311504C723C31896059A23
:1001A000071280E2EB27B27509832C1A1B6E5AA046
:1001B000523BD6B329E32F8453D100ED20FCB15B31
:1001C0006ACBBE394A4C58CFD0EFAAFB434D33859A
:1001D00045F9027F503C9FA851A3408F929D38F56E
:1001E000BCB6DA2110FFF3D2CD0C13EC5F974417A5
:1001F000C4A77E3D645D197360814FDC222A90881C
:1002000046EEB814DE5E0BDBE0323A0A4906245CA7
:10021000C2D3AC629195E479E7C8376D8DD54EA90C
:100220006C56F4EA657AAE08BA78252E1CA6B4C6D8
:10023000E8DD741F4BBD8B8A703EB5664803F60E31
:10024000613557B986C11D9EE1F8981169D98E9420
:100250009B1E87E9CE5528DF8CA1890DBFE6426839
:1002600041992D0FB054BB167A0411241FBECFEF55
:10027000D8E0DEBFCDBF11E0A0E0B1E0EAE1FBE1F4
:1002800002C005900D92A23EB107D9F724E0A2EE7C
:10029000B1E001C01D92AB34B207E1F711E0C5E354
:1002A000D1E004C02197FE010E94790BC433D1072D
:1002B000C9F70E9400050C948B0D0C940000DB0123
:1002C000FC01242F3C91308311963C91119731838E
:1002D00012963C911297328313963C911397338375
:1002E000245014963496243068F72CEF240F26956A
:1002F000269530E02F5F3F4F220F331F220F331F11
:100300004370DB01A20FB31FFC01E20FF31F41504A
:1003100018F08D918193FBCF0895AF92BF92CF9249
:10032000DF92EF92FF920F931F93CF93DF936C01B5
:100330007B018B01040F151FEB015E01AE18BF0896
:10034000C017D10759F06991D601ED91FC91019048
:10035000F081E02DC6010995892B79F7C501DF9160
:10036000CF911F910F91FF90EF90DF90CF90BF90B2
:10037000AF900895FC01538D448D252F30E0842FDC
:1003800090E0821B930B541710F0CF9608950197BD
:100390000895FC01918D828D981761F0A28DAE0FAA
:1003A000BF2FB11D5D968C91928D9F5F9F73928F31
:1003B00090E008958FEF9FEF08952FB7F894809104
:1003C000880290918902A0918A02B0918B022FBF7E
:1003D0008093940290939502A0939602B093970213
:1003E0008CE892E00E94C90197FF26C02FB7F894CD
:1003F0008091880290918902A0918A02B0918B022B
:100400002FBF409194025091950260919602709195
:100410009702841B950BA60BB70B4091900250914D
:100420009102609192027091930284179507A6073A
:10043000B707B0F28FEF9FEF0895FC01918D828D89
:10044000981731F0828DE80FF11D858D90E00895A9
:100450008FEF9FEF0895FC01918D228D892F90E001
:10046000805C9F4F821B91098F73992708958CE8B8
:1004700092E00E942B0221E0892B09F420E0822FD8
:10048000089580E090E0892B29F00E9437028111C5
:100490000C9400000895FC01A48DA80FB92FB11D84
:1004A000A35ABF4F2C91848D90E001968F739927AA
:1004B000848FA689B7892C93A089B1898C91837088
:1004C00080648C93938D848D981306C00288F38981
:1004D000E02D80818F7D80830895EF92FF920F93AE
:1004E0001F93CF93DF93EC0181E0888F9B8D8C8DE0
:1004F00098131AC0E889F989808185FF15C09FB7D4
:10050000F894EE89FF896083E889F9898081837096
:10051000806480839FBF81E090E0DF91CF911F9145
:100520000F91FF90EF900895F62E0B8D10E00F5F66
:100530001F4F0F731127E02E8C8D8E110CC00FB63C
:1005400007FCFACFE889F989808185FFF5CFCE01D4
:100550000E944B02F1CFEB8DEC0FFD2FF11DE35A02
:10056000FF4FF0829FB7F8940B8FEA89FB89808157
:100570008062CFCFCF93DF93EC01888D8823B9F0D1
:10058000AA89BB89E889F9898C9185FD03C080819E
:1005900086FD0DC00FB607FCF7CF8C9185FFF2CF1B
:1005A000808185FFEDCFCE010E944B02E9CFDF9124
:1005B000CF910895982F8FEB890F8A31B0F08FE992
:1005C000890F8A3118F489EB890F089580ED890F1E
:1005D0008A3010F484E0F8CF9B3221F09F3221F072
:1005E0008FEF08958EE308958FE30895FC01DB01FA
:1005F00011962C91119730E084E0359527958A95D6
:10060000E1F723708C91880F880F280F20831296B2
:100610002C91129730E035952795359527952F70B9
:1006200011968C91119730E1839FC0011124280FFE
:10063000218312968C91129790E4899F9001112446
:1006400013968C91820F82830895CF93DF93FC01E0
:10065000EB01DA019C01205F3F4F88819C91892743
:100660008083898111969C911197892781838A8142
:1006700012969C911297892782838B8113969C9165
:10068000139789278383349624961496E217F307E9
:1006900021F7DF91CF91089542E050E068E171E0E9
:1006A0008CE892E00C948D01CF93DF93FC010190D4
:1006B0000020E9F73197AF01481B590BBC018CE8CA
:1006C00092E00E948D01EC010E944C038C0F9D1F53
:1006D000DF91CF9108950F931F93CF93DF93EC0198
:1006E00088819981009759F02A813B812617370725
:1006F00030F081E0DF91CF911F910F9108958B0130
:100700006F5F7F4F0E94A40C009759F099838883F4
:100710001B830A832C813D81232B59F7FC01108216
:10072000E8CF80E0E7CFCF93DF93EC018881998118
:10073000009711F00E941B0C198218821D821C82E6
:100740001B821A82DF91CF910895EF92FF920F934F
:100750001F93CF93DF938C017B01EB010990002065
:10076000E9F72197C61BD70BBE010E946B038111CD
:1007700009C0C801DF91CF911F910F91FF90EF90B9
:100780000C949303F801D583C483B70180819181D0
:10079000DF91CF911F910F91FF90EF900C94750D09
:1007A000FC0180819181009711F00C941B0C08953D
:1007B0001F920F920FB60F9211242F933F934F93D6
:1007C0005F936F937F938F939F93AF93BF93EF93B9
:1007D000FF938CE892E00E944B02FF91EF91BF9152
:1007E000AF919F918F917F916F915F914F913F91C9
:1007F0002F910F900FBE0F901F9018951F920F9280
:100800000FB60F9211242F938F939F93EF93FF9323
:10081000E0919C02F0919D028081E091A202F09112
:10082000A30282FD1BC090818091A5028F5F8F7310
:100830002091A602821741F0E091A502F0E0E45772
:10084000FD4F958F8093A502FF91EF919F918F911E
:100850002F910F900FBE0F901F9018958081F4CFAD
:100860001F920F920FB60F9211242F933F938F93E5
:100870009F93AF93BF938091880290918902A0913A
:100880008A02B0918B023091E60123E0230F2D37CD
:1008900058F50196A11DB11D2093E60180938802B1
:1008A00090938902A0938A02B0938B028091E20117
:1008B0009091E301A091E401B091E5010196A11DA1
:1008C000B11D8093E2019093E301A093E401B09302
:1008D000E501BF91AF919F918F913F912F910F9023
:1008E0000FBE0F901F90189526E8230F0296A11DAA
:1008F000B11DD2CFCF93DF93CDB7DEB728970FB618
:10090000F894DEBF0FBECDBFECE8F2E01382128296
:1009100088EE93E0A0E0B0E084839583A683B7835C
:100920008AE091E09183808385EC90E095878487CD
:1009300084EC90E09787868780EC90E0918B808BA9
:1009400081EC90E0938B828B82EC90E0958B848B92
:1009500086EC90E0978B868B118E128E138E148E00
:1009600088E0FE013196DF01982F1D929A95E9F7F4
:1009700024E234E0D9011D928A95E9F788E0ACE2DF
:10098000B4E001900D928A95E1F782E880933804F3
:1009900084E88093390488E880933A048FE980934F
:1009A0003B0492E990933C0494E990933D0498E9C8
:1009B00090933E0480933F0482EA8093400484EA4B
:1009C0008093410488EA809342048FEA8093430431
:1009D00082EB8093440484EB8093450488EB8093FE
:1009E000460486E090E090932B0380932A03289698
:1009F0000FB6F894DEBF0FBECDBFDF91CF91089543
:100A0000CF93DF93CDB7DEB7CF5FD1090FB6F894A0
:100A1000DEBF0FBECDBF789484B5826084BD84B53F
:100A2000816084BD85B5826085BD85B5816085BDE9
:100A300080916E00816080936E00109281008091A1
:100A40008100826080938100809181008160809329
:100A50008100809180008160809380008091B1004E
:100A600084608093B1008091B00081608093B00079
:100A700080917A00846080937A0080917A0082600D
:100A800080937A0080917A00816080937A008091CF
:100A90007A00806880937A001092C100E0919C02F5
:100AA000F0919D0282E08083E0919802F09199029A
:100AB0001082E0919A02F0919B028FEC8083109259
:100AC000A402E091A002F091A10286E08083E0916F
:100AD0009E02F0919F02808180618083E0919E025E
:100AE000F0919F02808188608083E0919E02F09166
:100AF0009F02808180688083E0919E02F0919F0236
:100B000080818F7D808380ED97E0A0E0B0E08093CE
:100B1000900290939102A0939202B09393029E014F
:100B20002A543F4F4901B9016C5F7F4FCA50DF4FD4
:100B300079836883C65FD0408E010A531F4F8FE8C8
:100B400090E08C0F9D1F0596C350DF4F99838883DB
:100B5000CD5FD040DE0111961D0187E2ECE2F1E0AD
:100B6000DE01A157BF4F01900D928A95E1F78BE10D
:100B700091E00E945403CA51DF4F19821882C65E69
:100B8000D040C851DF4F19821882C85ED040C6518C
:100B9000DF4F19821882CA5ED0406AE171E0CE014F
:100BA0008A519F4F0E94A5030E94DD0197FD2BC033
:100BB00089831A82C651DF4FE880F980CA5ED0402F
:100BC000BFEFEB1AFB0AB701CE018A519F4F0E947B
:100BD0006B03882349F3CA51DF4F28813981C65EF0
:100BE000D040C651DF4F88819981CA5ED040B101A3
:100BF000820F931F0E94750DC651DF4FF982E88264
:100C0000CA5ED040D1CF1A8219821C821B821E82FA
:100C10001D8266E271E0C1010E94A503CA51DF4F47
:100C2000C880D980C65ED040C114D10409F4B8C0D0
:100C3000C651DF4FE880F980CA5ED040E114F1046C
:100C4000B1F08D819E81E80EF91EB701C1010E94AD
:100C50006B03882309F4A4C029813A818D819E8188
:100C6000B601820F931F0E94750DFE82ED824D81A9
:100C70005E8169817A818CE892E00E948D010E94F8
:100C80004C03C1010E94D003C651DF4F8881998176
:100C9000CA5ED040892B09F48AC41A8219821C8248
:100CA0001B821E821D826AE171E0C1010E94A503C0
:100CB000C651DF4F88819981CA5ED040892B49F1A6
:100CC000CA51DF4FE881F981C65ED040B180118200
:100CD000CA51DF4FC880D980C65ED040C114D1044C
:100CE00071F0F60101900020E9F731977F01EC18CF
:100CF000FD08B701C1010E946B03811155C0C101FC
:100D00000E949303CA51DF4FE881F981C65ED0404B
:100D1000B18289819A81412C512C3201009719F0BE
:100D20000E94DB0A2B01C1010E94D003C651DF4F94
:100D3000A880B980CA5ED040CA51DF4FE880F980F0
:100D4000C65ED040CC24C394D12CC451DF4F18824E
:100D5000CC5ED040CA14DB0478F5F701EC0DFD1D24
:100D6000E114F10421F41092E701E7EEF1E0808153
:100D7000082E000C990B0E94610D21E0892B09F0CF
:100D800020E0C451DF4FE881CC5ED040E22BC4515B
:100D9000DF4FE883CC5ED040FFEFCF1ADF0ADACF17
:100DA000C1010E94930363CFFE82ED82B601898167
:100DB0009A810E94750DA6CFC451DF4F2881CC5E69
:100DC000D0402111F4C381E6E3E5F1E0D1010190C7
:100DD0000D928A95E1F7F10101900020E9F7319732
:100DE000CF0182199309B2010E94510B920181E057
:100DF000481A5108420C531C81E090E0861797076F
:100E0000B4F4D2015C918A159B0530F4F701E80F28
:100E1000F91FE114F10421F41092E701E7EEF1E08B
:100E2000420E531E40815413C2C30196E7CF8DE298
:100E3000E4EBF1E0DE01AE59BF4F01900D928A95CF
:100E4000E1F7B7016F5F7F4F40E150E088E792E044
:100E50000E947C0DB7016F5E7F4F40E150E088E655
:100E600092E00E947C0DE8EEF1E080E8DF011D9247
:100E70008A95E9F7FE01EE59FF4F5F013F01FDE260
:100E80006F0E711CF12CE12CD12CC12CA614B704CF
:100E900009F448C0D5012D915D012D3309F442C0FC
:100EA000C6010196F401EC0DFD1D208384309105EF
:100EB000B9F56401F60181916F010E94DA02F60131
:100EC00031978083CA50DF4F28813981C65FD04077
:100ED000C216D30679F7B401C8010E94F602E2E611
:100EE000F0E0EC0FFD1FEE0DFF1DD8018C9180830B
:100EF000E3E6F0E0EC0FFD1FEE0DFF1D11968C9167
:100F000011978083E4E6F0E0EC0FFD1FEE0DFF1D6E
:100F100012968C918083B3E0EB0EF11C90E080E0A0
:100F20006C01B4CFC114D104A9F1F401EC0DFD1D85
:100F30005401CF0188199909049714F41192F8CF3C
:100F4000F50181915F010E94DA02F50131978083FA
:100F5000CA50DF4F28813981C65FD0402A153B0532
:100F600079F7B401C8010E94F602A2E6B0E0AC0F26
:100F7000BD1FAE0DBF1DF80131E0C31AD108CF016E
:100F8000801B910B8C159D051CF481918D93F7CFDF
:100F9000EC0CFD1CE2E6F0E0EC0FFD1FEE0DFF1D7A
:100FA0001082F0923704E0923604570134E0B59491
:100FB000A7943A95E1F7C550DF4FB982A882CB5F7D
:100FC000D0408AE08093290340E168E672E08CE239
:100FD00093E00E945F0130E020E080E190E0FF2498
:100FE000F39440E1E42E5BE1D52E682FFC01E85D2F
:100FF000FC4FA401D40171917D93CA50DF4FA880AA
:10100000B980C65FD040AA16BB06A9F76E112AC0E8
:10101000F4016081F0E1EF0EF4017181E72FF0E05F
:10102000E859FE4FE4917E2F7F25F4017083728191
:10103000E72FF0E0E859FE4F7491F401718373815A
:10104000E72FF0E0E859FE4F7491F4017283E62F28
:10105000F0E0E859FE4F6491F4016383F7FE29C282
:10106000FF0CFD24BC01645D7C4F5B01FA01C19063
:10107000AF01B501681B790B620F731FFB01608123
:10108000C626F501C1925F01A417B50779F704964A
:101090002C5F3F4F803B910509F0A7CFCE50DF4F2B
:1010A00019821882C25FD04028EE31E0C051DF4F74
:1010B00039832883C05FD040BE016E597F4F2B011A
:1010C0002BE1F22EC550DF4FA880B980CB5FD04016
:1010D000CE50DF4F28813981C25FD040A216B306BF
:1010E00009F442C240E1B201CE018A529F4F0E94F0
:1010F0005F0140912903442309F436C230E1439F44
:10110000A0011124445D5C4FB201C8010E94250377
:10111000D801EC91F0E0E859FF4FE491EC9314967C
:10112000EC911497F0E0E859FF4FE4911496EC939A
:1011300014971896EC911897F0E0E859FF4FE49156
:101140001896EC9318971C96EC911C97F0E0E859D0
:10115000FF4FE4911C96EC931C971D968C911D9764
:101160001996EC911997F0E0E859FF4FE4911D961C
:10117000EC931D971596EC911597F0E0E859FF4F09
:10118000E4911996EC9319971196EC911197F0E070
:10119000E859FF4FE4911596EC931597E82FF0E08E
:1011A000E859FF4FE4911196EC93119712968C91A8
:1011B00012971A96EC911A97F0E0E859FF4FE491D4
:1011C0001296EC931297E82FF0E0E859FF4FE49164
:1011D0001A96EC931A9716968C9116971E96EC9188
:1011E0001E97F0E0E859FF4FE4911696EC9316979E
:1011F000E82FF0E0E859FF4FE4911E96EC931E971C
:1012000013968C9113971796EC911797F0E0E85985
:10121000FF4FE4911396EC9313971B96EC911B9759
:10122000F0E0E859FF4FE4911796EC9317971F965B
:10123000EC911F97F0E0E859FF4FE4911B96EC9377
:101240001B97E82FF0E0E859FF4FE4911F96EC93CD
:10125000809129038150B0E18B9FC0011124FC01D2
:10126000E75DFC4FC251DF4FF983E883CE5ED0408B
:1012700099E2A92E93E0B92EC251DF4F288139811E
:10128000CE5ED040A216B30609F415C1A9014D5F88
:101290005F4FB801C4010E942503C451DF4F9982FA
:1012A0008882CC5ED040CC50DF4F19830883C45F66
:1012B000D04085E0A82EB12CC451DF4FA881B98160
:1012C000CC5ED0409C9111968C91119712963C91D6
:1012D000129713962C91792F770F97FD7F25B82FB2
:1012E000BB0F87FDBF25A32FAA0F37FDAF25622FA8
:1012F000660F27FD6F25472F440F77FD4F256B2E77
:10130000660CB7FF04C05B2F550F652E6F24DA2ED5
:10131000DD0CA7FDDF24E62EEE0C67FDEF24C42EC6
:10132000CC0C47FF04C0542F550FC52ECF24562D8B
:10133000550F67FC5F25FD2DFF0FD7FCFF25EE2D18
:10134000EE0FE7FCEF25792E7C24C850DF4F788222
:10135000C85FD040782E7526C150DF4F7882CF5FAE
:10136000D040732E7F26C750DF4F7882C95FD040B0
:10137000722E7E26C650DF4F7882CA5FD0404C2541
:101380005625DF26EE26E32FE727EB27E427C1507B
:10139000DF4F3881CF5FD040E327ED25E725F0E030
:1013A000E859FF4F3491CC50DF4FE881F981C45F99
:1013B000D0403083E22FEB27EA27C850DF4F7880F8
:1013C000C85FD040E725E527C750DF4F2881C95FB8
:1013D000D040E227EE25F0E0E859FF4F2491F501D7
:1013E000EF70FF27E00FF11F20839A2796274927E8
:1013F000C150DF4F7880CF5FD0407426D724C650CD
:10140000DF4F9881CA5FD0409D25E92FF0E0E85971
:10141000FF4FE491D5011596AF70BB27A00FB11F08
:10142000EC93E82FE727E627C850DF4F3881C85FE5
:10143000D040E3275E27C750DF4FE881C95FD04027
:10144000E527EE26EE2DF0E0E859FF4FE491D501B7
:101450001A96AF70BB27A00FB11FEC93C451DF4F9A
:1014600068817981CC5ED0406C5F7F4FC451DF4F83
:1014700079836883CC5ED040CC50DF4F88819981DE
:10148000C45FD0400496CC50DF4F99838883C45FFB
:10149000D04094E0A90EB11CA5E1AA16B10409F050
:1014A0000BCFC251DF4FE881F981CE5ED0407097FB
:1014B000D9CEFF0CD7CD4CE253E0B801C051DF4F7D
:1014C00088819981C05FD0400E942503E8E7F2E05F
:1014D000C051DF4FC880D980C05FD0409601205FE7
:1014E0003F4FD6018C91908189278C9311968C91D6
:1014F00011979181892711968C93119712968C914F
:1015000012979281892712968C93129713968C9139
:1015100013979381892713968C933496B4E0CB0E5E
:10152000D11CC216D306E9F640E1BE016A527F4FD4
:1015300088E792E00E945F01C051DF4FD982C882E4
:10154000C05FD040E0E14E0E511CCE50DF4F2881ED
:101550003981C25FD0402F5F3F4FCE50DF4F39837C
:101560002883C25FD040AECD40E250E068EE71E02B
:10157000C350DF4F88819981CD5FD0400E947C0DA0
:10158000CE0181579F4F0E945403CE018A519F4F35
:101590000E94D00380E090E0892B09F4DECA0E940B
:1015A0003702882309F4D6CA0E940000D3CACE01AC
:1015B0008A519F4FEDCF1F93FC0199278827BC01CB
:1015C000E89411911032E9F3193010F01E30C8F38D
:1015D0001B3251F01D3249F4689406C00E94020B80
:1015E000610F711D811D911D119110531A30B0F3BF
:1015F0003EF490958095709561957F4F8F4F9F4FEA
:101600001F910895592F482F372F262F660F771FC8
:10161000881F991F660F771F881F991F620F731FFE
:10162000841F951F660F771F881F991F089599279C
:10163000882708952F923F924F925F926F927F92E8
:101640008F929F92AF92BF92CF92DF92EF92FF92D2
:101650000F931F93CF93DF93CDB7DEB7CA1BDB0B7E
:101660000FB6F894DEBF0FBECDBF09942A88398823
:1016700048885F846E847D848C849B84AA84B9842A
:10168000C884DF80EE80FD800C811B81AA81B98136
:10169000CE0FD11D0FB6F894DEBF0FBECDBFED014A
:1016A000089597FB072E16F4009407D077FD09D014
:1016B0000E94650B07FC05D03EF4909581959F4FE5
:1016C0000895709561957F4F0895AA1BBB1B51E14A
:1016D00007C0AA1FBB1FA617B70710F0A61BB70BA2
:1016E000881F991F5A95A9F780959095BC01CD0147
:1016F0000895EE0FFF1F0590F491E02D09940F93CC
:101700001F93CF93DF938230910510F482E090E035
:10171000E0914904F0914A0430E020E0B0E0A0E01C
:10172000309799F42115310509F44AC0281B390B6B
:1017300024303105D8F58A819B816115710589F1C5
:10174000FB0193838283FE0111C04081518102819C
:10175000138148175907E0F04817590799F4109773
:1017600061F012960C93129713961C933296CF0148
:10177000DF91CF911F910F91089500934904109329
:101780004A04F4CF2115310551F04217530738F0C0
:10179000A901DB019A01BD01DF01F801C1CFEF0111
:1017A000F9CF90934A0480934904CDCFFE01E20F14
:1017B000F31F819391932250310939832883D7CF26
:1017C0002091470430914804232B41F420910201D9
:1017D0003091030130934804209347042091000185
:1017E000309101012115310541F42DB73EB74091EB
:1017F000040150910501241B350BE0914704F09141
:101800004804E217F307A0F42E1B3F0B28173907F3
:1018100078F0AC014E5F5F4F2417350748F04E0F4C
:101820005F1F5093480440934704819391939FCF47
:10183000F0E0E0E09CCFCF93DF930097E9F0FC016C
:10184000329713821282A0914904B0914A04ED01AB
:1018500030E020E01097A1F420813181820F931FA6
:1018600020914704309148042817390709F061C0D6
:10187000F0934804E0934704DF91CF910895EA0183
:10188000CE17DF07E8F54A815B819E0141155105BE
:10189000B1F7E901FB83EA8349915991C40FD51F40
:1018A000EC17FD0761F4808191810296840F951FEA
:1018B000E90199838883828193819B838A83F0E005
:1018C000E0E012968D919C9113970097B9F52D91B8
:1018D0003C911197CD010296820F931F20914704EE
:1018E000309148042817390739F6309751F510928E
:1018F0004A0410924904B0934804A0934704BCCF13
:10190000D383C28340815181840F951FC817D907A3
:1019100061F44E5F5F4F88819981480F591F518351
:1019200040838A819B81938382832115310509F04D
:10193000B0CFF0934A04E09349049ECFFD01DC014F
:10194000C0CF13821282D7CFB0E0A0E0EAEAFCE079
:101950000C941C0B8C01009751F4CB010E947F0B5F
:101960008C01C801CDB7DEB7E0E10C94380BFC0167
:10197000E60FF71F9C0122503109E217F30708F424
:101980009DC0D901CD91DC911197C617D70798F06A
:10199000C530D10530F3CE0104978617970708F3B9
:1019A000C61BD70B2297C193D1936D937C93CF0124
:1019B0000E941B0CD6CF5B01AC1ABD0A4C018C0EE9
:1019C0009D1EA0914904B0914A04512C412CF12C48
:1019D000E12C109731F580914704909148048815C7
:1019E000990509F05CC04616570608F058C080916A
:1019F000000190910101009741F48DB79EB740918D
:101A0000040150910501841B950BE817F90708F0B4
:101A100055C0F0934804E0934704F9017183608353
:101A2000A0CF8D919C91119712966C90129713965E
:101A30007C901397A815B90559F56C0142E0C40EC6
:101A4000D11CCA14DB0420F1AC014A195B09DA018C
:101A50001296159780F06282738251834083D90178
:101A60006D937C93E114F10471F0D7011396FC930C
:101A7000EE93129776CF22968C0F9D1FF9019183DA
:101A80008083F301EFCFF0934A04E093490469CFD8
:101A90004816590608F42C017D01D3019ACFCB01D9
:101AA0000E947F0B7C01009749F0AE01B8010E94B3
:101AB0006C0DC8010E941B0C870153CF10E000E0A1
:101AC00050CF85FD0C94170B806291110C94170B6D
:101AD00081568A51D8F70895FB01DC0102C00190BC
:101AE0000D9241505040D8F70895FB01DC01019060
:101AF0000D920020E1F70895FB01DC0141505040B8
:101B000048F001900D920020C9F701C01D9241508C
:0A1B10005040E0F70895F894FFCF6D
:101B1A0000004B048000000000006D028D01BA0134
:101B2A00BA022B02C9011D020D0A00454E54455244
:101B3A00204441544100444154412000666C61678D
:101B4A007B74684074735F767661735F7430305F5C
:101B5A00656124595F746F5F66316E645F666C619C
:101B6A00687D00413C54443E485F37494E2D5341FD
:101B7A0030494C66535330494B7B564D3046447D71
:101B8A004F4B3052413345536E4E4D4143443152CF
:101B9A0041335453424C4D394F44304F4C6B4B41B7
:101BAA00305353304C4D6A4944304B4139454B66AA
:101BBA00414C6D4B5334454D73594430544B394F56
:101BCA004C414D006C7677444963325647766F68CC
:101BDA0053586B6A506A66494D4479773564336263
:101BEA006F514337746463794851446D6F626F3D36
:021BFA000000E9
:00000001FF
